{
  "contractName": "SmartContractBank",
  "abi": [
    {
      "anonymous": false,
      "inputs": [
        {
          "indexed": false,
          "internalType": "address",
          "name": "sender",
          "type": "address"
        },
        {
          "indexed": false,
          "internalType": "uint256",
          "name": "amount",
          "type": "uint256"
        },
        {
          "indexed": false,
          "internalType": "uint256",
          "name": "balance",
          "type": "uint256"
        }
      ],
      "name": "Deposit",
      "type": "event"
    },
    {
      "anonymous": false,
      "inputs": [
        {
          "indexed": false,
          "internalType": "address",
          "name": "to",
          "type": "address"
        },
        {
          "indexed": false,
          "internalType": "uint256",
          "name": "amount",
          "type": "uint256"
        },
        {
          "indexed": false,
          "internalType": "uint256",
          "name": "balance",
          "type": "uint256"
        }
      ],
      "name": "Transfer",
      "type": "event"
    },
    {
      "anonymous": false,
      "inputs": [
        {
          "indexed": false,
          "internalType": "uint256",
          "name": "amount",
          "type": "uint256"
        },
        {
          "indexed": false,
          "internalType": "uint256",
          "name": "balance",
          "type": "uint256"
        }
      ],
      "name": "Withdraw",
      "type": "event"
    },
    {
      "inputs": [],
      "name": "owner",
      "outputs": [
        {
          "internalType": "address payable",
          "name": "",
          "type": "address"
        }
      ],
      "stateMutability": "view",
      "type": "function",
      "constant": true
    },
    {
      "inputs": [],
      "name": "initialize",
      "outputs": [],
      "stateMutability": "nonpayable",
      "type": "function"
    },
    {
      "inputs": [],
      "name": "deposit",
      "outputs": [],
      "stateMutability": "payable",
      "type": "function",
      "payable": true
    },
    {
      "inputs": [],
      "name": "getBalance",
      "outputs": [
        {
          "internalType": "uint256",
          "name": "",
          "type": "uint256"
        }
      ],
      "stateMutability": "view",
      "type": "function",
      "constant": true
    }
  ],
  "bytecode": "0x608060405234801561001057600080fd5b506103db806100206000396000f3fe60806040526004361061003f5760003560e01c806312065fe0146100445780638129fc1c1461006f5780638da5cb5b14610086578063d0e30db0146100c7575b600080fd5b34801561005057600080fd5b506100596100d1565b6040518082815260200191505060405180910390f35b34801561007b57600080fd5b506100846100d9565b005b34801561009257600080fd5b5061009b610218565b604051808273ffffffffffffffffffffffffffffffffffffffff16815260200191505060405180910390f35b6100cf61023e565b005b600047905090565b600060019054906101000a900460ff16806100f857506100f7610360565b5b8061010e575060008054906101000a900460ff16155b610163576040517f08c379a000000000000000000000000000000000000000000000000000000000815260040180806020018281038252602e815260200180610378602e913960400191505060405180910390fd5b60008060019054906101000a900460ff1615905080156101b3576001600060016101000a81548160ff02191690831515021790555060016000806101000a81548160ff0219169083151502179055505b33603360006101000a81548173ffffffffffffffffffffffffffffffffffffffff021916908373ffffffffffffffffffffffffffffffffffffffff16021790555080156102155760008060016101000a81548160ff0219169083151502179055505b50565b603360009054906101000a900473ffffffffffffffffffffffffffffffffffffffff1681565b603360009054906101000a900473ffffffffffffffffffffffffffffffffffffffff1673ffffffffffffffffffffffffffffffffffffffff163373ffffffffffffffffffffffffffffffffffffffff1614610301576040517f08c379a00000000000000000000000000000000000000000000000000000000081526004018080602001828103825260098152602001807f6e6f74206f776e6572000000000000000000000000000000000000000000000081525060200191505060405180910390fd5b7f90890809c654f11d6e72a28fa60149770a0d11ec6c92319d6ceb2bb0a4ea1a15333447604051808473ffffffffffffffffffffffffffffffffffffffff168152602001838152602001828152602001935050505060405180910390a1565b6000803090506000813b905060008114925050509056fe436f6e747261637420696e7374616e63652068617320616c7265616479206265656e20696e697469616c697a6564a26469706673582212207bc8073072f69ff92fb90c11d3ad3ea11ff68a59cf935c29cfca50008c3fa40764736f6c634300060c0033",
  "immutableReferences": {},
  "source": "pragma solidity ^0.6.0;\r\nimport \"@openzeppelin/upgrades-core/contracts/Initializable.sol\";\r\n\r\n/// @title StoragePayments for ethereum to store in contract\r\n/// @author Karan k\r\n/// @notice dont use this contract for real use it only implements the basics to show some working function for the assignment\r\n/// @dev All functions work in remix javascript vm only tested here\r\n\r\ncontract SmartContractBank is Initializable {\r\n\r\n/// @author Karan K\r\n/// @notice deposit ethereum in the smart contract for only the owner and can request the balance of the smart contract, also features a kill function to kill all in the contract\r\n/// @dev workin\r\n/// @param sender sender of the value that is gonna be in the contract\r\n/// @param amount value of the what is stroed\r\n/// @return balance\r\n\r\nevent Deposit(address sender, uint amount, uint balance);\r\n//@notice function has not yet been made for Withdraw\r\nevent Withdraw(uint amount, uint balance);\r\nevent Transfer(address to, uint amount, uint balance);\r\n    \r\n address payable public owner;\r\n\r\nfunction initialize() public initializer {\r\n   owner = msg.sender;\r\n    }   \r\n\r\n function deposit() public payable onlyOwner{\r\n     emit Deposit(msg.sender, msg.value, address(this).balance);\r\n }\r\n \r\n modifier onlyOwner() {\r\n     require(msg.sender == owner, \"not owner\");\r\n     _;\r\n }\r\n \r\n function getBalance() public view returns (uint){\r\n     return address(this).balance;\r\n }\r\n \r\n    /// @notice Only use this function if you are rich it kills all the money in the contract\r\n    /// @dev all the ethereum stored in the contract.\r\n //function close() public { \r\n  //selfdestruct(owner); \r\n //}\r\n}",
  "sourcePath": "C:/Users/karan/Banker/contracts/SmartContractBank.sol",
  "compiler": {
    "name": "solc",
    "version": "0.6.12+commit.27d51765.Emscripten.clang"
  },
  "schemaVersion": "3.3.3",
  "updatedAt": "2021-01-29T13:26:36.205Z",
  "networkType": "ethereum",
  "devdoc": {
    "author": "Karan k",
    "details": "All functions work in remix javascript vm only tested here",
    "events": {
      "Deposit(address,uint256,uint256)": {
        "author": "Karan K",
        "details": "workin",
        "params": {
          "amount": "value of the what is stroed",
          "sender": "sender of the value that is gonna be in the contract"
        }
      }
    },
    "kind": "dev",
    "methods": {},
    "title": "StoragePayments for ethereum to store in contract",
    "version": 1
  },
  "userdoc": {
    "events": {
      "Deposit(address,uint256,uint256)": {
        "notice": "deposit ethereum in the smart contract for only the owner and can request the balance of the smart contract, also features a kill function to kill all in the contract"
      }
    },
    "kind": "user",
    "methods": {},
    "notice": "dont use this contract for real use it only implements the basics to show some working function for the assignment",
    "version": 1
  }
}